:020000040800F2
:10000000385B002075020008B50800085D0800088C
:10001000B10800083D070008D30D000800000000EB
:10002000000000000000000000000000DD010008EA
:10003000410700080000000021020008410B0008F1
:100040008F0200088F0200088F0200088F0200084C
:100050008F0200088F0200088F0200088F0200083C
:100060008F0200088F0200088F0200088F0200082C
:100070008F0200088F0200088F0200088F0200081C
:100080008F0200088F0200088F0200088F0200080C
:100090008F0200088F0200088F0200088F020008FC
:1000A0008F0200088F0200088F0200088F020008EC
:1000B0008F0200088F0200088F0200088F020008DC
:1000C0008F0200088F0200088F0200088F020008CC
:1000D0008F020008B10B00088F0200088F02000891
:1000E0008F0200088F0200088F0200088F020008AC
:1000F0008F0200088F0200088F0200088F0200089C
:100100008F0200088F0200088F0200088F0200088B
:100110008F0200088F0200088F0200088F0200087B
:100120008F0200088F0200088F0200088F0200086B
:1001300000F002F800F042F80AA090E8000C8244B7
:100140008344AAF10107DA4501D100F037F8AFF294
:10015000090EBAE80F0013F0010F18BFFB1A43F0A5
:1001600001031847E42D0000042E0000103A24BFBC
:1001700078C878C1FAD8520724BF30C830C144BF0C
:1001800004680C607047000000230024002500264E
:10019000103A28BF78C1FBD8520728BF30C148BFEA
:1001A0000B607047642900F0F180732900F026820B
:1001B000002070471FB51FBD10B510BD00F08CFAB0
:1001C0001146FFF7F7FF00F069FE00F0AAFA03B44A
:1001D000FFF7F2FF03BC00F0FEFD0000224B1968A0
:1001E0000868B0E8F00F80F30988BFF36F8F4FF015
:1001F000000080F311884EF00D0E704700000000E3
:1002000006480068006880F3088862B661B6BFF3EC
:100210004F8FBFF36F8F00DF00BF00BF08ED00E01E
:10022000EFF30980BFF36F8F0F4B1A6820E9F00FCF
:10023000106008B54FF0500080F31188BFF34F8F66
:10024000BFF36F8F02F064F84FF0000080F3118865
:10025000BDE8084019680868B0E8F00F80F3098825
:10026000BFF36F8F704700BF40000020EFF30580A1
:10027000704700000948804709480047FEE7FEE74D
:10028000FEE7FEE7FEE7FEE7FEE7FEE7FEE7FEE746
:1002900004480549054A064B70470000510B000809
:1002A0003101000838550020385B00203857002005
:1002B00038570020704700000FB4044910B503AA56
:1002C000029800F09FF910BC5DF814FB2400002098
:1002D0002DE9F0410E460446002020622046E168E8
:1002E000884730B3252805D0D4E901219047206AFA
:1002F000401CF2E7E168204600278847050018D037
:10030000A5F14100192802D820354FF40067324684
:10031000294620462760FFF745FF40B1012804D059
:10032000F61D26F007060836D8E7361DD6E728461C
:10033000DAE7206ABDE8F08170B50C460546012A6F
:1003400005D02878800600D5EA69002302E0012361
:1003500005E05B1C934202D2E05C0028F9D1A86959
:10036000E618C01AA861286A184428622846AFF324
:10037000008004E0D5E9012114F8010B9047B44254
:10038000F8D32846AFF3008070BD00002DE9F0419E
:100390000646002410687529314616A510D0AFF323
:1003A0000080002802DA404213A507E031688A077E
:1003B00001D512A502E0490704D511A5012401E0E9
:1003C000AFF3008000210A2206F1240709E0B0FB08
:1003D000F2FCB0FBF2F302FB1C00303078541846FC
:1003E000491C0028F3D123462A463046BDE8F04197
:1003F00000F080B8000000002D0000002B0000007D
:1004000020000000032A40F2308010F0030C00F0BE
:10041000158011F8013BBCF1020F624498BF11F83E
:1004200001CB00F8013B38BF11F8013BA2F10402F7
:1004300098BF00F801CB38BF00F8013B11F003036F
:1004400000F0F280083AC0F0088051F8043B083A06
:1004500051F804CBA0E80810F5E7121D5CBF51F875
:10046000043B40F8043BAFF30080D20724BF11F8EF
:10047000013B11F801CB48BF11F8012B24BF00F854
:10048000013B00F801CB48BF00F8012B704702F098
:10049000FF0343EA032242EA024200F0F9B84FF0B8
:1004A000000200B5134694469646203922BFA0E8C4
:1004B0000C50A0E80C50B1F12001BFF4F7AF0907D0
:1004C00028BFA0E80C5048BF0CC05DF804EB8900C1
:1004D00028BF40F8042B08BF704748BF20F8022B04
:1004E00011F0804F18BF00F8012B7047704770471C
:1004F000704770472DE9F0470D46994692460446ED
:1005000000F124080168880604D5E06921F0100193
:10051000216000E00120A84201DD471B00E0002728
:10052000A1697A1902EB0900081AA0612078C006B7
:1005300002D42046AFF30080002608E0D4E9012170
:100540001AF806009047206A401C761C20624E452F
:10055000F4DB2078C0060AD52046AFF3008006E021
:10056000D4E9012130209047206A401C2062381EC7
:10057000A7F10107F4DC07E0D4E9012118F8050030
:100580009047206A401C2062281EA5F10105F3DC7B
:100590002046AFF300802078000602D50220BDE897
:1005A000F0870120FBE7000001694A1C026108781E
:1005B000704700B58FB0CDE90131002105910549A3
:1005C0007944CDE9031011466846FFF781FE0FB06C
:1005D00000BD0000E5FFFFFF10B5436913B1AFF3A5
:1005E000008001E0FFF7A8FE012010BD127800F1A5
:1005F00024010A7000224A700122EDE711684FF0D1
:10060000FF32E9E7074B70B50D467B44FFF7D1FF9A
:100610000446284600F05CF810B14FF0FF3070BD82
:10062000204670BD2B08000010B5203AC0F00B80AA
:10063000B1E81850203AA0E81850B1E81850A0E8E6
:100640001850BFF4F5AF5FEA027C24BFB1E8185040
:10065000A0E8185044BF18C918C0BDE810405FEAB0
:10066000827C24BF51F8043B40F8043B08BF70472C
:10067000D20728BF31F8023B48BF11F8012B28BF31
:1006800020F8023B48BF00F8012B70474FF00002F2
:100690000429C0F0128010F0030C3FF402AFCCF13B
:1006A000040CBCF1020F18BF00F8012BA8BF20F802
:1006B000022BA1EB0C01FFF7F4BE5FEAC17C24BF63
:1006C00000F8012B00F8012B48BF00F8012B704700
:1006D000007B00F080007047754600F02BF8AE46B6
:1006E00005006946534620F00700854618B020B53E
:1006F000FFF7CEFDBDE820404FF000064FF00007A9
:100700004FF000084FF0000B21F00701AC46ACE8B9
:10071000C009ACE8C009ACE8C009ACE8C0098D4626
:10072000704710B50446AFF300802046BDE8104086
:10073000FFF74DBD00487047D454002000BFFEE7CE
:1007400070472DE9F04102460025002600200023D5
:100750000024002791F803C00CF00F0591F803C0A6
:100760000CF0100CBCF1000F03D091F802C04CEA61
:10077000050591F800C0BCF1000F31D014680020CD
:100780002BE04FF0010C0CFA00F3B1F800C00CEABA
:1007900003069E4220D183004FF00F0C0CFA03F7A2
:1007A000BC4305FA03FC4CEA040491F803C0BCF115
:1007B000280F06D14FF0010C0CFA00FCC2F814C04F
:1007C0000AE091F803C0BCF1480F05D14FF0010CCD
:1007D0000CFA00FCC2F810C0401C0828D1D31460E9
:1007E000B1F800C0BCF1FF0F34DD546800202EE0EA
:1007F00000F1080C4FF0010808FA0CF3B1F800C042
:100800000CEA03069E4221D183004FF00F0C0CFA34
:1008100003F7BC4305FA03FC4CEA040491F803C057
:10082000BCF1280F05D100F1080C08FA0CF8C2F849
:10083000148091F803C0BCF1480F07D100F1080CF7
:100840004FF0010808FA0CF8C2F81080401C082884
:10085000CED35460BDE8F0810161704700BFFEE770
:1008600008B50121242000F069F84FF48070ADF83C
:10087000000010208DF8030003208DF80200694667
:100880000948FFF75EFF4FF480710748FFF7E4FF68
:100890000420ADF8000069460448FFF752FF042128
:1008A0000248FFF7D9FF08BD0008014000140140CD
:1008B00000BFFEE77047000070B5002100230F2243
:1008C000C47804B3154C246804F4E064C4F5E0640F
:1008D000210AC1F10403CA40447804FA03F1847880
:1008E0001440214309010E4C0678A155047804F008
:1008F0001F050124AC4005786D11AD0005F1E02520
:10090000C5F8004109E0047804F01F050124AC405B
:10091000044D0678761145F8264070BD0CED00E0D8
:1009200000E400E080E100E002490143024A116076
:10093000704700000000FA050CED00E029B1064AFE
:1009400092690243044B9A6104E0034A926982432C
:10095000014B9A61704700000010024030B5002141
:100960000022002400232D4D6D6805F00C0121B1FB
:10097000042905D0082923D105E0294D056022E08E
:10098000274D05601FE0254D6D6805F47012234D5D
:100990006D6805F48034022505EB92421CB9214DA7
:1009A000554305600BE01D4D6D6805F400351DB124
:1009B0001C4D5543056002E0194D5543056002E0AA
:1009C000174D056000BF00BF144D6D6805F0F001C4
:1009D0000909154D6B5C0568DD4045600F4D6D687C
:1009E00005F4E061090A104D6B5C4568DD408560E7
:1009F0000A4D6D6805F46051C90A0B4D6B5C456882
:100A0000DD40C560054D6D6805F44041890B074D1B
:100A10006B5CC568B5FBF3F5056130BD00100240A5
:100A200000127A0000093D002A0000203A00002050
:100A300010B500F001F810BD0CB500200190009039
:100A40003348006840F480303149086000BF3048C6
:100A5000006800F4003000900198401C019000985C
:100A600018B90198B0F5A06FF1D12948006800F4D9
:100A7000003010B10120009001E0002000900098AB
:100A8000012843D12348006840F010002149086044
:100A90000846006820F0030008600846006840F03F
:100AA000020008601A4840681949486008464068D2
:100AB00048600846406840F48060486008464068E6
:100AC00020F47C1048600846406840F4E810486014
:100AD0000846006840F08070086000BF0C4800685D
:100AE00000F000700028F9D00948406820F00300A9
:100AF000074948600846406840F00200486000BF6F
:100B00000348406800F00C000828F9D10CBD000033
:100B10000010024000200240042808D14FF0E021DC
:100B2000096941F004014FF0E022116107E04FF044
:100B3000E021096921F004014FF0E02211617047C2
:100B400010B501F0E1FE012801D001F0D5FC10BD87
:100B500010B51348006840F00100114908600846CC
:100B60004068104908400E494860084600680E4930
:100B700008400B4908600846006820F4802008609F
:100B80000846406820F4FE0048604FF41F0088606B
:100B9000FFF74EFF4FF000600449086010BD0000F1
:100BA000001002400000FFF8FFFFF6FE08ED00E035
:100BB00010B540F225511D4800F04AF810B31B480B
:100BC00000F002F9C4B21A48008800F40040C8B925
:100BD0001748008800F4804060B10A2C03D0002040
:100BE0001349088020E01248008840F40040104972
:100BF000088019E00D2C06D10D48008840F4804093
:100C00000B49088010E00A480088C0F30D0009492C
:100C10000C5407480088401C054908800846008895
:100C2000C72801DD0020088010BD00000038014009
:100C300028000020C000002021B1828942F4005227
:100C4000828104E082894DF6FF731A4082817047E9
:100C500070B50246002400230025002040F66A16E5
:100C6000B14200D100BFC1F3421501F01F030126BC
:100C700006FA03F3012D02D19689334006E0022DD6
:100C800002D1168A334001E0968A33400C120126C5
:100C900006FA04F41688344013B10CB1012000E0C8
:100CA000002070BDF0B5034600240026002500207A
:100CB00040F66A17B94200D100BF1846C1F342148A
:100CC00001F01F06012707FA06F5012C01D10C30AF
:100CD00004E0022C01D1103000E014301AB1076892
:100CE0002F43076002E00768AF430760F0BD0000D4
:100CF0002DE9F04786B005460E460024A24600BF07
:100D0000A1460027B08900B100BF2F462C8A4CF6BF
:100D1000FF700440F08804432C82AC894EF6F31037
:100D20000440B08831890843718908430443AC8189
:100D3000AC8A4FF6FF400440B0890443AC8201A85E
:100D4000FFF70CFE1F48874202D1DDF810A001E03A
:100D5000DDF80CA0A88900F4004040B10AEBCA00FD
:100D600000EB0A1031684900B0FBF1F807E00AEB2C
:100D7000CA0000EB0A1031688900B0FBF1F864206A
:100D8000B8FBF0F004012009642101FB1089A88957
:100D900000F4004040B1322000EBC900B0FBF1F09C
:100DA00000F00700044308E0322000EB0910642142
:100DB000B0FBF1F000F00F0004432C8106B0BDE859
:100DC000F08700000038014001468888C0F3080021
:100DD000704700BFFEE700BF7047000010B5042059
:100DE000FFF79AFE104800681049B0FBF1F0104977
:100DF00008700D4800680D49B0FBF1F44FF47A70AB
:100E0000444301200B4908804FF0E020006940F086
:100E100002004FF0E021086108464461006940F09B
:100E20000100086110BD00000C00002040420F00CE
:100E3000200000202200002000BF054A128802F096
:100E40004002002AF9D0C2B2014B1B1D1A80704724
:100E50000038014009E005480068C0430449C1F872
:100E6000A0014FF4FA7001F0B3F8F4E7A0012142B9
:100E7000000021420DE0002006490860C82001F072
:100E8000A7F801200449C1F888014FF4487001F027
:100E90009FF8F0E788812242008022421CB54FF47F
:100EA0004070FFF741FDFFF799FF4FF4E13000F08C
:100EB0009DFEFFF7D5FC0748012100238022CDE9E4
:100EC000001005A1074801F0EFFC01F0BFF9002078
:100ED0001CBD00000000002073746172745F7461B7
:100EE000736B0000811B00082DE9F04105460E469A
:100EF0002648076826480068001D00F0C7FE50B964
:100F00002348006890F82C10012088402149096886
:100F1000814320480160681CD8B9D6B11E49486891
:100F20001B49096888601A4982680968CA601849BB
:100F30000968091D8268516015490968091D8160A9
:100F4000154A134909684A6111460968491C11602C
:100F50001AE07C190E4800684460BC4207D20C4875
:100F60000168091D0D48006800F0B4FE0CE0084857
:100F70000168091D0A48006800F0ACFE09480068D5
:100F8000844201D207480460BDE8F081540000208B
:100F90004000002058000020980400204800002055
:100FA000440000207000002010B5044600F0B8FE98
:100FB00031480068401C304908603048006840B93A
:100FC0002E4804600846006801280DD100F00CFA94
:100FD0000AE02B48006838B928480068C06AE16A0E
:100FE000884201D82548046026480068401C2549ED
:100FF000086008460068606494F82C10012088405E
:1010000021490968084320490860E16A01EB810130
:101010001E4A02EB81014868A0608268E260211DDF
:10102000826851608160E16A01EB8101174A02EB3D
:1010300081026261E16A01EB8101144A52F82110D8
:10104000491CE26A02EB8202104B43F8221000F0C6
:10105000ABFE0B48006868B108480068C06AE16AE6
:10106000884207D24FF0805009490860BFF34F8F84
:10107000BFF36F8F10BD0000500000204000002023
:101080005C0000206C00002058000020C8010020F7
:1010900004ED00E010B500F043FE10480068D0B940
:1010A0000F4800F007FE0F4800F004FE0C480E4900
:1010B00008600C480D49086000221021052001F04D
:1010C00035FA064908600846006820B108A10348BF
:1010D000006800F019FF00F067FE10BD88000020D6
:1010E000AC040020C0040020800000208400002008
:1010F000546D72510000000010B516E000F010FEB3
:101100000C48C068C468201D00F0C0FD0A48006893
:10111000401E0949086009480068401E07490860E8
:1011200000F042FE204600F05FF804480068002806
:10113000E4D110BD84040020500000204C000020A9
:1011400070B504460D46206C70B1216CE068014416
:10115000E160D4E90210884201D32168E1602846A9
:10116000226CE168FFF74EF970BD2DE9F0410446AD
:101170000F4615464FF00008A66B206C48B9206852
:1011800000282CD1A06801F0BFFC80460020A060A0
:1011900025E07DB93946226C6068FFF733F9216C90
:1011A000606808446060D4E90101884217D3206870
:1011B000606014E03946226CE068FFF723F9216C87
:1011C000E068411AE1602168E068884203D2216C3E
:1011D000A068411AE160022D01D106B1761E701C93
:1011E000A0634046BDE8F08110B50446206B00F0D6
:1011F00013FE204600F010FE10BD00000146084A14
:10120000126812680AB9012200E000220A600A6826
:1012100022B9034A1268D268106800E000207047C3
:101220008000002030B54FF4A043174800F00704B9
:101230002CB1C01D20F00700134C041B1B1B0246E1
:10124000124C22600024114D6C60D018083820F038
:1012500007000F4C206000240D4D2D686C600C4D74
:101260002D682C601146441A4C60094C24680C60AF
:10127000084D4C682C60084D4C682C604FF00044C1
:10128000064D2C6030BD0000D404002094000020E6
:101290009C000020A4000020A0000020B00000203E
:1012A00000BFFFF729FF064800680128F9D94FF071
:1012B000805004490860BFF34F8FBFF36F8FF0E792
:1012C000C801002004ED00E02DE9F04106460D467E
:1012D00017469846069C0DB9246000E02760E66337
:1012E00025640121204601F061F984F85080002036
:1012F000A064BDE8F08100002DE9F05F82460F4652
:1013000090469B460A9E0C9C4FEA8801A522206BC2
:10131000FFF7BDF8A8F10100216B01EB800929F06E
:10132000070909F0070008B9012000E0002028B9EA
:101330004FF4587223A128A0FEF7BEFF87B1002505
:1013400007E0795D04F134004155785D00B902E0B1
:101350006D1C102DF5D300BF00214320015502E084
:10136000002084F83400202E01D2012000E000206B
:1013700028B940F2973213A117A0FEF79DFF202E47
:1013800000D31F26E662E66400202065201D00F0E1
:101390009EFC04F1180000F09AFC2461C6F12000C4
:1013A000A06164620020606584F858005A46514686
:1013B000484600F0D3FB20600B9808B10B980460FE
:1013C000BDE8F09F2E2E5C4672656552544F535C0B
:1013D0007461736B732E63004572726F723A25737A
:1013E0002C25640D0A00000010B5002407E004EB72
:1013F00084010F4A02EB810000F05CFC641C202C8D
:10140000F5D30C4800F056FC0B4800F053FC0B4899
:1014100000F050FC0A4800F04DFC0A4800F04AFC7D
:1014200004480949086004480849086010BD0000E4
:10143000C8010020480400205C0400207004002043
:10144000840400209804002044000020480000206C
:1014500010B50146164800E0006803688B42FBD3D4
:101460000246436813448B4204D143684C682344CA
:10147000436001460A464B6813440468A34211D1F5
:101480000C4C03682468A34208D04B680468646865
:1014900023444B6003681B680B6005E0054B1B6829
:1014A0000B6001E003680B60884200D0016010BD52
:1014B000940000209C0000202DE9F04104460D46D8
:1014C00016461F464FF0000865602461B5420CD8EF
:1014D000F01BA169884202D34FF0010811E0211DE1
:1014E0000948006800F0F6FB0BE0BE4204D2BD42A2
:1014F00002D34FF0010804E0211D0448006800F009
:10150000E9FB4046BDE8F081840000208000002017
:1015100070B5054600F004FCA86B08B9012400E092
:10152000002400F041FC204670BD0000F1B5009899
:10153000846C00262CB940F6D53220A124A0FEF7F9
:10154000BBFEA06BE16B884201D2012000E00020CD
:1015500028B940F6D63219A11DA0FEF7ADFEA06B4A
:10156000E16B884227D294F9455000226946204613
:10157000FFF7FBFD0646681C60B9606A08B90120E8
:1015800000E00020B0B904F1240001F03DFB88B177
:1015900001260FE07F2D01D0012000E0002028B9B6
:1015A00040F6F63205A10AA0FEF786FE681C40B29E
:1015B00084F8450000BF3046F8BD00002E2E5C4682
:1015C00072656552544F535C71756575652E630085
:1015D0004572726F723A25732C25640D0A00000063
:1015E00070B505460E460E480068C068C468201DE8
:1015F00000F04CFB94F8280000F0040028B13246BB
:101600002946204600F0F8F805E094F8280000F09C
:10161000FE0084F828002046216A884770BD00003B
:101620008000002070B586B08AE0029800280CDAAD
:1016300003AE2EB940F2063247A14DA0FEF73CFEA4
:10164000D6E90020B168904700BF0298002877DBF8
:10165000049C606908B9012000E0002010B9201D39
:1016600000F014FB01A800F0F3F8054602980A28E0
:1016700064D2DFE800F06305072E365306082F37E3
:1016800000BF00BF00BF94F8280040F0010084F8BC
:1016900028000398A269811803462A462046FFF7CE
:1016A0000BFFA8B194F8280000F0040038B10398AB
:1016B000A26981182A46204600F09EF805E094F8B9
:1016C000280000F0FE0084F828002046216A8847A0
:1016D00035E000BF94F8280000F0FE0084F82800F0
:1016E0002DE000BF94F8280040F0010084F82800A5
:1016F0000398A061A06908B1012000E0002028B98A
:1017000040F2593214A11AA0FEF7D6FDA069411982
:101710002B462A462046FFF7CFFE10E094F828001B
:1017200000F0020018B9204600F076FB05E094F8BE
:10173000280000F0FE0084F8280000E000BF00BF91
:10174000002202A90E48006800F0A6FF00287FF4DE
:101750006CAF06B070BD00002E2E5C4672656552FF
:10176000544F535C74696D6572732E630000000002
:101770004572726F723A25732C25640D0A000000C1
:1017800088000020F8B505460C4600F0B9FD684613
:1017900000F05EF80646009820BB44B9B54206D872
:1017A00001F0D0FA31462846FFF71AFF1CE03CB1A1
:1017B0000E480068006808B9012000E000200446D7
:1017C000A91B22460A48006800F0DCFB01F0BAFAC7
:1017D00050B94FF0805007490860BFF34F8FBFF3F7
:1017E0006F8F01E001F0AEFAF8BD00008400002028
:1017F0008800002004ED00E070B504460D46164652
:1018000004E0A06905442046216A8847A06941197F
:101810002B4632462046FFF74FFE0028F1D170BD1F
:1018200009480068006808B9012000E0002020B1E4
:101830004FF0FF300549086005E003480068C068C4
:1018400000680249086070474400002070000020D2
:1018500070B5044601F068F80546074800688542FF
:1018600004D200F00BF80120206001E0002020608D
:1018700001480560284670BD9000002070B508E062
:101880000D480068C06804684FF0FF312046FFF73C
:10189000A7FE09480068006808B9012000E00020A0
:1018A0000028EDD004480568044800680249086033
:1018B0000248056070BD0000800000208400002008
:1018C0000B480068401C08B9012000E0002020B946
:1018D000CE2208A112A0FEF7EFFC00BF502080F33B
:1018E0001188BFF34F8FBFF36F8F00BF00BFFEE7BC
:1018F000B40000202E2E5C4672656552544F535C36
:10190000706F727461626C655C525644535C4152F4
:101910004D5F434D335C706F72742E6300000000A6
:101920004572726F723A25732C25640D0A0000000F
:1019300008B500BF6846FFF761FC044620460099E1
:10194000FFF720FFFFF76EFEF4E770B5044600F0E6
:10195000E7F994F9455019E0A06C30B12046FFF743
:10196000E5FD88B100F004FC0EE0606A08B90120D2
:1019700000E0002038B904F1240001F045F918B165
:1019800000F0F6FB00E003E0681E45B2002DE3DC4A
:1019900000BFFF2084F8450000F006FA00F0C0F90F
:1019A00094F9445010E0206908B9012000E00020BB
:1019B00048B904F1100001F027F908B100F0D8FB94
:1019C000681E45B200E001E0002DECDC00BFFF2006
:1019D00084F8440000F0E8F970BD00002DE9F04102
:1019E00004464FF0000800F08BFC4848006808B936
:1019F000FFF718FC464800682040002873D114B354
:101A000004F10800A0421ED9083404F00700D8B140
:101A100004F00700C0F108002044A04211D904F0EE
:101A20000700C0F10800044404F0070008B90120D1
:101A300000E0002040B99C2236A140A0FEF73CFC0B
:101A400002E0002400E00024002C4CD03F48006855
:101A5000844248D83E4E3046056801E02E462D6847
:101A60006868A04202D228680028F7D12748006899
:101A7000854238D0306800F108082868306068680E
:101A8000001B102813D92F1907F0070008B90120EF
:101A900000E0002020B9CF221EA128A0FEF70CFCF8
:101AA0006868001B78606C603846FFF7D1FC2749F6
:101AB00068680968081A25490860084600682549C9
:101AC0000968884203D22148006822490860104909
:101AD0006868096808436860002028601E4800683C
:101AE000401C1D49086001F02DF908F0070008B9F5
:101AF000012000E0002028B94FF4887205A10FA052
:101B0000FEF7DAFB4046BDE8F08100009C000020B3
:101B1000B00000202E2E5C4672656552544F535C17
:101B2000706F727461626C655C4D656D4D616E675E
:101B30005C686561705F342E630000004572726FEF
:101B4000723A25732C25640D0A000000A0000020C5
:101B500094000020A4000020A8000020001F4FF0E7
:101B600080730360001F21F001030360001F034B1B
:101B7000036014380260203870470000C118000864
:101B80001CB5044600F0CCF80D4802210023322297
:101B9000CDE900100BA10E4800F086FE0D48032190
:101BA00000233222CDE900100BA10E4800F07CFE8C
:101BB0000D48006800F046FA00F0F6F81CBD000081
:101BC000040000206C6564305F7461736B0000007A
:101BD000550E0008080000206C6564315F74617365
:101BE0006B000000750E00080000002010B586B0E4
:101BF0000446012144F20400FEF7A0FE4FF40070F9
:101C0000ADF8140003208DF8160018208DF8170089
:101C100005A91C48FEF795FD4FF48060ADF814004F
:101C200004208DF8170005A91648FEF78AFD252027
:101C30008DF8000003208DF801008DF802000120CE
:101C40008DF803006846FEF737FE01940020ADF8DA
:101C50000800ADF80A00ADF80C00ADF810000C203B
:101C6000ADF80E0001A90848FFF742F8012240F242
:101C700025510548FFF716F801210348FEF7DCFF60
:101C800006B010BD000801400038014001460A6955
:101C9000D1E901309860D1E9010358605068884269
:101CA00001D188685060002008611068401E1060F3
:101CB0001068704700F1080141604FF0FF3181600A
:101CC00000F10801C160016100210160704700213D
:101CD0000161704710B502460B685C1C0CB91069B5
:101CE00007E002F1080000E04068446824689C4274
:101CF000FAD944684C604C68A160886041600A6110
:101D00001468641C146010BD42684A6093688B605C
:101D1000936859609160086103685B1C03607047B9
:101D200010B500BF502080F31188BFF34F8FBFF371
:101D30006F8F00BF0B480068401C0A4908600846C6
:101D4000006801280DD108480068C0B208B9012018
:101D500000E0002028B940F2731204A10EA0FEF7A3
:101D6000ABFA10BDB400002004ED00E02E2E5C465E
:101D700072656552544F535C706F727461626C652A
:101D80005C525644535C41524D5F434D335C706F1F
:101D900072742E63000000004572726F723A2573F0
:101DA0002C25640D0A00000010B50B48006828B906
:101DB0004FF4BD7209A114A0FEF77EFA0648006830
:101DC000401E054908600846006820B9002080F3DD
:101DD000118800BF00BF10BDB40000202E2E5C464D
:101DE00072656552544F535C706F727461626C65BA
:101DF0005C525644535C41524D5F434D335C706FAF
:101E000072742E63000000004572726F723A25737F
:101E10002C25640D0A00000070B506463546002EDC
:101E20003AD0083D2C461D4960680968084008B151
:101E3000012000E0002028B94FF4927218A122A0DE
:101E4000FEF73AFA206808B9012000E0002028B91E
:101E500040F2251212A11CA0FEF72EFA0F4960686D
:101E600009680840C0B12068B0B90C4960680968C9
:101E70008843606000F044FA1749606809680844C4
:101E8000154908602046FFF7E3FA14480068401C33
:101E90001249086000F056FF70BD0000B00000203D
:101EA0002E2E5C4672656552544F535C706F72748F
:101EB00061626C655C4D656D4D616E675C68656106
:101EC000705F342E630000004572726F723A2573A2
:101ED0002C25640D0A000000A0000020AC000020AA
:101EE00000204FF0E02108618861064800684FF447
:101EF0007A71B0FBF1F0401E4FF0E02148610720FD
:101F0000086170470C0000202DE9F04105460F469E
:101F100000262DB940F6CA2210A115A0FEF7CCF973
:101F2000BFB1002412E0164800EBC4004068A8428C
:101F300003D1134800EBC4060AE036B9104850F844
:101F4000340010B90E4800EBC406641C082CEAD318
:101F500000BF0EB137607560BDE8F0812E2E5C4683
:101F600072656552544F535C71756575652E6300DB
:101F70004572726F723A25732C25640D0A000000B9
:101F8000880100202DE9F04105460E4617462C46F3
:101F9000FFF7C6FE94F94400401C10B9002084F8F5
:101FA000440094F94500401C10B9002084F8450015
:101FB000FFF7FAFEA06B28B93A46314604F1240037
:101FC00000F006F92046FFF7C0FCBDE8F0810000F4
:101FD00070B504460025ACB10F48006808B901206F
:101FE00000E0002028B940F249520CA110A0FEF7F1
:101FF00063F900F085F900212046FEF775FF00F037
:10200000A1FE05463DB94FF080500D490860BFF371
:102010004F8FBFF36F8F70BD7C0000202E2E5C466B
:1020200072656552544F535C7461736B732E630019
:102030004572726F723A25732C25640D0A000000F8
:1020400004ED00E070B50546FFF76AFE15B92F48AC
:10205000006800E028460446201DFFF717FE78B907
:10206000E06A00EB80002A4951F8200040B994F85A
:102070002C100120884027490968814325480160C8
:10208000A06A18B104F11800FFF700FE22480068AA
:10209000401C214908601D480068844209D1211D67
:1020A0001E48FFF731FE1E480068401C1C490860AE
:1020B00006E01C480068401E1A490860FFF7B0FBA4
:1020C000FFF772FE11480068844202D02046FFF7F5
:1020D0008BF815480068C0B10C480068844214D1E0
:1020E0001248006808B9012000E0002028B940F239
:1020F000DC420FA113A0FEF7DFF84FF08050154926
:102100000860BFF34F8FBFF36F8F70BD400000209A
:10211000C8010020580000206C000020840400202A
:102120004C000020500000205C0000207C000020BB
:102130002E2E5C4672656552544F535C7461736B0E
:10214000732E63004572726F723A25732C25640DED
:102150000A00000004ED00E003490968016003493A
:1021600009684160704700006800002054000020AA
:1021700001200149086070476400002070B50446E2
:102180000D462CB940F61C4207A10CA0FEF794F8AE
:102190000E48016818312046FFF79CFD01212846B2
:1021A000FEF7A2FE70BD00002E2E5C4672656552E1
:1021B000544F535C7461736B732E63004572726F7E
:1021C000723A25732C25640D0A000000400000209F
:1021D00070B504460E4615462CB940F6524211A180
:1021E00015A0FEF769F8606817490968C8611649C3
:1021F000826809680A621449096818318268516066
:1022000011490968183181600F4909688C62216899
:10221000491C21600DB14FF0FF3629463046FEF7CC
:1022200063FE70BD2E2E5C4672656552544F535C42
:102230007461736B732E63004572726F723A25730B
:102240002C25640D0A000000400000201CB51B482E
:1022500000210B468222CDE9001019A11A4800F096
:1022600023FB0446012C02D100F034FE0446012C6D
:1022700015D100BF502080F31188BFF34F8FBFF3FB
:102280006F8F00BF4FF0FF301049086001201049E8
:10229000086000200F49086000F08EF80BE0601C19
:1022A00008B1012000E0002028B94FF404620AA11F
:1022B0000EA0FEF701F8114800681CBD7400002054
:1022C00049444C4500000000A112000870000020A5
:1022D0005C000020540000202E2E5C467265655282
:1022E000544F535C7461736B732E63004572726F4D
:1022F000723A25732C25640D0A0000007800002036
:1023000002480068401C0149086070477C000020BA
:1023100010B51B48006818B101201A4908602DE06B
:1023200000201849086018480068B0FA80F0C0F131
:102330001F0404EB8400154951F8200008B1012066
:1023400000E0002028B940F6024211A115A0FDF7D7
:10235000B3FF04EB84010D4A02EB81004168496838
:10236000416000F1080142688A4202D1416849682F
:1023700041604168C9680F4A116000BF10BD00008C
:102380007C0000206400002058000020C8010020CC
:102390002E2E5C4672656552544F535C7461736BAC
:1023A000732E63004572726F723A25732C25640D8B
:1023B0000A000000400000201CB53B4C204600787D
:1023C0000190FF20214608700846007800909DF893
:1023D000000000F0F0009DF80010884201D10120BB
:1023E00000E0002028B940F21F1230A13AA0FDF70A
:1023F00063FF9DF8000000F050003B490870072083
:102400003A49086009E039480068401E37490860C9
:102410009DF800004006000E00909DF8000000F0BE
:1024200080008028EFD031480068C0F10700042800
:1024300001D1012000E0002028B940F233121BA195
:1024400025A0FDF739FF29480068C0F107000428DE
:1024500001D1012000E0002028B94FF49E7213A1A1
:102460001DA0FDF729FF2148006800021F490860F0
:102470000846008800F4E06008600B490198087085
:102480001B48006840F4700019490860084600685D
:1024900040F070400860FFF723FD002015490860F8
:1024A000FDF7AEFE00201CBD00E400E02E2E5C46D1
:1024B00072656552544F535C706F727461626C65E3
:1024C0005C525644535C41524D5F434D335C706FD8
:1024D00072742E63000000004572726F723A2573A9
:1024E0002C25640D0A000000B8000020BC0000206C
:1024F00020ED00E0B400002010B500BF502080F3B4
:102500001188BFF34F8FBFF36F8F00BF00F012FA37
:1025100018B14FF080500449086000BF002080F3DC
:10252000118800BF10BD000004ED00E02DE9F84364
:1025300005460E4617460024E5B1601EB0FBF5F0D7
:10254000B04217D305FB06F010F1550F12D805FB6A
:1025500006F909F15400FFF741FA04468CB1A04690
:1025600008F154083B464246314628460094FEF79F
:10257000ABFE06E02CB94FF4E37203A107A0FDF710
:102580009BFE2046BDE8F8832E2E5C4672656552A0
:10259000544F535C71756575652E63004572726F9B
:1025A000723A25732C25640D0A0000002DE9F041D4
:1025B00005460E4601272C462CB94FF488722CA1F3
:1025C00030A0FDF779FE002C42D0E06B00283FD010
:1025D0004FF0FF31E06BB1FBF0F0216C884237D354
:1025E000FFF79EFBD4E90F12206801FB0200A060F8
:1025F0000020A06320686060E06B401E226C2168B0
:1026000000FB0211E160FF2084F8440084F84500DB
:102610009EB9206908B9012000E00020A8B904F1A2
:10262000100000F0F1FA80B14FF0805019490860B5
:10263000BFF34F8FBFF36F8F07E004F11000FFF778
:1026400039FB04F12400FFF735FBFFF7ADFB00E099
:1026500000270FB1012000E0002028B940F2451208
:1026600003A108A0FDF728FE3846BDE8F081000070
:102670002E2E5C4672656552544F535C71756575BC
:10268000652E63004572726F723A25732C25640DB6
:102690000A00000004ED00E02DE9F74183B0054693
:1026A0000E464FF000082C462CB940F251524CA176
:1026B00050A0FDF701FE0EB9206C08B9012000E022
:1026C000002028B940F2555245A14AA0FDF7F4FD7B
:1026D00000F01AF908B9059808B9012000E00020B7
:1026E00028B940F25A523EA142A0FDF7E5FD00BFD5
:1026F000FFF716FBA76BF7B131462046FEF720FD2A
:10270000781EA063206908B9012000E0002060B9AC
:1027100004F1100000F078FA38B14FF080503949D8
:102720000860BFF34F8FBFF36F8FFFF73DFB0120B2
:1027300006B0BDE8F081059818B9FFF735FB002019
:10274000F6E7B8F1000F04D101A8FFF705FD4FF03F
:102750000108FFF729FBFFF7D3FDFFF7E1FA94F932
:102760004400401C10B9002084F8440094F945004E
:10277000401C10B9002084F84500FFF715FB05A99F
:1027800001A800F041F8F0B92046FEF7C1FEA0B163
:1027900004F124000599FFF7F1FC2046FFF7D5F876
:1027A00000F0D0FA0028A3D14FF0805015490860FE
:1027B000BFF34F8FBFF36F8F9AE72046FFF7C5F83F
:1027C00000F0C0FA94E72046FFF7BFF800F0BAFA2D
:1027D0002046FEF79DFE00288AD00020A8E70000D2
:1027E0002E2E5C4672656552544F535C717565754B
:1027F000652E63004572726F723A25732C25640D45
:102800000A00000004ED00E070B505460C462DB945
:1028100040F6FD4219A11EA0FDF74EFD2CB940F671
:10282000FE4216A11AA0FDF747FDFFF779FA1C48F2
:10283000036868681A1A2068401C08B9002619E065
:10284000184928680968884206D06868984203D801
:102850000126002020600DE02068904207D9206802
:10286000801A20602846FFF777FC002602E000204F
:1028700020600126FFF798FA304670BD2E2E5C4688
:1028800072656552544F535C7461736B732E6300B1
:102890004572726F723A25732C25640D0A00000090
:1028A00054000020680000202DE9FF4F85B08046CD
:1028B00089461746DDE912ABB800FFF78FF80646E8
:1028C00056B15C20FFF78AF804460CB1266304E099
:1028D0003046FFF7A1FA00E000247CB10020CDE9EA
:1028E00000ABCDE902403A4649464046089BFEF718
:1028F00003FD2046FEF758FB012501E04FF0FF35B0
:10290000284609B0BDE8F08F0549096809B90120DA
:1029100005E00449096809B9022000E00020704779
:102920005C0000207C00002001490868704700001E
:10293000540000202DE9F0414FF000085E48006887
:1029400000287DD15D480068451C5C480560EDB9F4
:102950005B480068006808B9012000E0002028B941
:1029600040F6C72257A15CA0FDF7A6FC54480768B3
:102970005D480068524908605B4807605B48006832
:10298000401C5A490860FEF74BFF00BF58480068DA
:10299000854277D300BF4A480068006808B9012023
:1029A00000E0002020B14FF0FF305149086068E09E
:1029B00043480068C068C4686668B54202D24C48A3
:1029C00006605EE06069D4E902128A60D4E90221FF
:1029D0004A60211D42688A4201D1E16841600022BB
:1029E00062610168491E0160A06A98B1A06AD4E9D9
:1029F00007128A60D4E907214A6004F1180142688D
:102A00008A4201D1216A41600022A2620168491E06
:102A1000016000BF94F82C100120884035490968F6
:102A2000084334490860E16A01EB8101324A02EB54
:102A300081014868A0608268E260211D826800E030
:102A400032E051608160E16A01EB81012A4A02EBC8
:102A500081026261E16A01EB8101274A52F821108B
:102A6000491CE26A02EB8202234B43F822102349FD
:102A7000E06A0968C96A88428DD34FF001088AE785
:102A800000E000BF1D480068C06A00EB80001A49E2
:102A900051F82000012801D94FF0010818480068BA
:102AA00008B14FF0010804E016480068401C1549C1
:102AB00008604046BDE8F0817C0000205400002002
:102AC000440000202E2E5C4672656552544F535CC4
:102AD0007461736B732E63004572726F723A257363
:102AE0002C25640D0A00000048000020680000202A
:102AF0007000002058000020C80100204000002085
:102B0000640000206000002070B505462C460026B9
:102B1000002D5ED030480068844201D1012000E0E1
:102B2000002028B941F24F022CA131A0FDF7C4FBCF
:102B3000206D28B941F2500228A12DA0FDF7BCFB61
:102B4000206D401E2065E16CE06A884241D0206D16
:102B500000283ED1201DFFF799F840B994F82C10B9
:102B60000120884026490968814325480160E06CBE
:102B7000E062E06AC0F12000A06194F82C1001200E
:102B800088401F49096808431D490860E16A01EB54
:102B900081011C4A02EB81014868A0608268E26002
:102BA000211D826851608160E16A01EB8101154A53
:102BB00002EB81026261E16A01EB8101114A52F884
:102BC0002110491CE26A02EB82020E4B43F82210EC
:102BD0000126304670BD0000400000202E2E5C46CD
:102BE00072656552544F535C7461736B732E63004E
:102BF0004572726F723A25732C25640D0A0000002D
:102C000058000020C801002070B50646F068C4686E
:102C10002CB940F682423CA140A0FDF74DFBA06AD2
:102C2000D4E907128A60D4E907214A6004F1180147
:102C300042688A4201D1216A41600022A262016891
:102C4000491E01603948006800283DD16069D4E917
:102C500002128A60D4E902214A60211D42688A4238
:102C600001D1E1684160002262610168491E016092
:102C700094F82C10012088402D49096808432C49FC
:102C80000860E16A01EB81012A4A02EB8101486890
:102C9000A0608268E260211D826851608160E16A03
:102CA00001EB8101234A02EB81026261E16A01EBDF
:102CB0008101204A52F82110491CE26A02EB82028B
:102CC0001C4B43F8221010E01B494868E061826801
:102CD000226204F11801826851608160164AA26282
:102CE00011460968491C116000BF1449E06A09686F
:102CF000C96A884204D9012501201149086000E011
:102D00000025284670BD00002E2E5C467265655277
:102D1000544F535C7461736B732E63004572726F12
:102D2000723A25732C25640D0A0000007C000020F7
:102D300058000020C801002070040020400000203E
:102D40006400002070B5002400265048006828B9AF
:102D500040F6B3024EA153A0FDF7AEFAFEF7E0FF36
:102D60004A480068401E4949086008460068002833
:102D70007ED15048006800287AD05BE04E48C06899
:102D8000C468A06AD4E907128A60D4E907214A60BE
:102D900004F1180142688A4201D1216A416000228F
:102DA000A2620168491E01606069D4E902128A606A
:102DB000D4E902214A60211D42688A4201D1E168BA
:102DC0004160002262610168491E016094F82C1084
:102DD0000120884039490968084338490860E16A98
:102DE00001EB8101364A02EB81014868A0608268EC
:102DF000E260211D826851608160E16A01EB81011E
:102E00002F4A02EB81026261E16A01EB81012C4AE7
:102E100052F82110491CE26A02EB8202284B43F867
:102E200022102849E06A0968C96A884202D3012051
:102E3000254908602048006808B9012000E000200A
:102E400000289BD00CB1FEF7EBFC2048056865B16B
:102E500000BFFFF76FFD10B101201B4908606D1E18
:102E6000002DF6D10020194908601748006800E0DD
:102E700008E038B10126300715490860BFF34F8FCD
:102E8000BFF36F8FFEF790FF304670BD7C000020CF
:102E90002E2E5C4672656552544F535C7461736BA1
:102EA000732E63004572726F723A25732C25640D80
:102EB0000A0000005000002070040020580000208C
:102EC000C8010020400000206400002060000020B5
:102ED00004ED00E01CB50024FEF7DCF80B480068A8
:102EE00058B10B481F2100234FF48272CDE9001026
:102EF00008A10A48FFF7D8FC04462CB940F2191281
:102F000007A10DA0FDF7D8F920461CBD88000020C0
:102F10008C000020546D7220537663003119000834
:102F20002E2E5C4672656552544F535C74696D6514
:102F300072732E63000000004572726F723A25733F
:102F40002C25640D0A000000682F000800000020F6
:102F5000C00000006C01000828300008C0000020FC
:102F6000785A0000880100080000000000000000FE
:102F70000000000000A24A04000000000000000061
:102F80000102030406070809000000000000000019
:102F90000000000000000102030401020304060710
:102FA00008090204060800000000000000000000FC
:102FB0000000000000000000000000000000000011
:102FC0000000000000000000000000000000000001
:102FD00000000000000000000000000000000000F1
:102FE0001F000000000000000000000000000000C2
:102FF00000000000000000000000000000000000D1
:1030000000000000000000000000000000000000C0
:10301000000000000000000000000000AAAAAAAA08
:083020000000000000000000A8
:0400000508000131BD
:00000001FF
